:100000000C942A000C9447000C9447000C94470071
:100010000C9447000C9447000C9447000C94470044
:100020000C9447000C9447000C9447000C94470034
:100030000C9447000C9447000C9447000C94470024
:100040000C9447000C9447000C9447000C94470014
:100050000C94470011241FBECFE5D4E0DEBFCDBF16
:1000600010E0A0E6B0E0EAE3FAE002C005900D92ED
:10007000AC37B107D9F720E0ACE7B0E001C01D9282
:10008000AE37B207E1F70E9416030C941B050C94DF
:100090000000FC0190819295990F990F907C97B97F
:1000A0008181806886B90895877097B1907E97B9ED
:1000B00097B1892B87B986B1806486B9349BFECF0E
:1000C00086B1806186B984B195B108950E94080314
:1000D00041E060E081E00E940D0141E061E081E0EB
:1000E0000E940D0160E081E00E9405020895CF9317
:1000F000C82F8FEF689F900111243695279536956C
:100100002795ABE7B4E10E94D704969587950E94A6
:100110001103C13079F018F0C230B9F020C041E0CD
:1001200060E081E00E94800141E061E081E00E94A6
:10013000800115C041E060E081E00E94800140E064
:1001400061E081E00E9480010AC040E060E081E05F
:100150000E94800141E061E081E00E948001CF9136
:10016000089569E080E00E94AF0280917C008111D7
:1001700005C080E690E00E949C0207C084E690E003
:100180000E949C0280E20E94680269E081E00E9475
:10019000AF0280917D00843620F090E00E94D10271
:1001A000089590E00E94D10280E20E9468020895C2
:1001B00080917D008F3038F410927C0060E080E008
:1001C0000E947700089591EF980F953038F481E000
:1001D00080937C0069E10E94770008959CEE980F5F
:1001E000953038F481E080937C0062E30E947700D0
:1001F000089597EE980F953038F481E080937C0055
:100200006BE40E94770008958E3130F081E0809396
:100210007C0064E60E9477000895683008F06FC0A3
:10022000843008F06CC0813001F130F08230B1F1DF
:10023000833009F44CC00895413059F42AB381E069
:1002400090E002C0880F991F6A95E2F7822B8ABB63
:1002500008952AB381E090E002C0880F991F6A9543
:10026000E2F7809582238ABB0895413059F427B381
:1002700081E090E002C0880F991F6A95E2F7822B17
:1002800087BB089527B381E090E002C0880F991FD3
:100290006A95E2F78095822387BB0895413059F42F
:1002A00024B381E090E002C0880F991F6A95E2F7BD
:1002B000822B84BB089524B381E090E002C0880FB4
:1002C000991F6A95E2F78095822384BB0895413097
:1002D00059F421B381E090E002C0880F991F6A951C
:1002E000E2F7822B81BB089521B381E090E002C048
:1002F000880F991F6A95E2F78095822381BB089544
:10030000683008F06FC0843008F06CC0813001F1B3
:1003100030F08230B1F1833009F44CC0089541309F
:1003200059F42BB381E090E002C0880F991F6A95C1
:10033000E2F7822B8BBB08952BB381E090E002C0E3
:10034000880F991F6A95E2F7809582238BBB0895E9
:10035000413059F428B381E090E002C0880F991F22
:100360006A95E2F7822B88BB089528B381E090E07C
:1003700002C0880F991F6A95E2F78095822388BB97
:100380000895413059F425B381E090E002C0880F10
:10039000991F6A95E2F7822B85BB089525B381E00A
:1003A00090E002C0880F991F6A95E2F7809582233A
:1003B00085BB0895413059F422B381E090E002C03A
:1003C000880F991F6A95E2F7822B82BB089522B3AA
:1003D00081E090E002C0880F991F6A95E2F780954E
:1003E000822382BB0895843078F4813041F028F074
:1003F000823039F0833039F008956ABB089567BBC5
:10040000089564BB089561BB0895843078F4813009
:1004100041F028F0823039F0833039F008956BBB19
:10042000089568BB089565BB089562BB0895CF9396
:10043000C82F40E066E083E00E94800140E065E074
:1004400083E00E9480018FE99FE00197F1F700C0EF
:10045000000041E067E083E00E9480018FE99FE0B7
:100460000197F1F700C000006C2F82E00E940502A6
:100470008FE99FE00197F1F700C0000040E067E0DE
:1004800083E00E9480018FE99FE00197F1F700C0AF
:100490000000CF91089541E066E083E00E940D01E5
:1004A00041E065E083E00E940D0141E067E083E008
:1004B0000E940D016FEF82E00E94F30188E30E9429
:1004C00017028CE00E94170281E00E941702089533
:1004D000CF93C82F41E066E083E00E94800140E0B6
:1004E00065E083E00E9480018FE99FE00197F1F7CA
:1004F00000C0000041E067E083E00E9480018FE9D6
:100500009FE00197F1F700C000006C2F82E00E948D
:1005100005028FE99FE00197F1F700C0000040E07D
:1005200067E083E00E9480018FE99FE00197F1F787
:1005300000C00000CF9108950F931F93CF938C01BB
:10054000C0E003C00E946802CF5FF801EC0FF11D0C
:1005500080818111F7CFCF911F910F910895813044
:1005600031F070F0823031F0833039F00AC090E41D
:10057000960F07C090E1960F04C090E5960F01C05A
:10058000962F892F80680E9417020895CF93DF93DA
:10059000EA010E94AF02CE010E949C02DF91CF913E
:1005A0000895CF93DF93CDB7DEB760970FB6F89479
:1005B000DEBF0FBECDBF4AE0BE016F5F7F4F0E941E
:1005C000E604CE0101960E949C0260960FB6F89454
:1005D000DEBF0FBECDBFDF91CF91089582E00E94B4
:1005E00054009C01A6E9B0E00E94D7040E94DC03FD
:1005F0002AE037ED43E250E40E946A0420E030ED47
:100600004FEB54E40E943B030E94AD03862F0895F4
:1006100012BE41E063E081E00E940D0188E683BFE5
:1006200008958CBF83B7826083BF0895CF93DF9313
:1006300000D0CDB7DEB70E9466000E944B0247E6AD
:1006400050E062E080E00E94C60242E750E062E0D3
:1006500081E00E94C60283E089838A83CE010196ED
:100660000E9449000E94EE0280937D000E94D80003
:100670000E94B100F7CF0E944F030C9430040E94F7
:10068000290458F00E94220440F029F45F3F29F029
:100690000C94190451110C9464040C941F040E94CE
:1006A000410468F39923B1F3552391F3951B550B3E
:1006B000BB27AA2762177307840738F09F5F5F4F35
:1006C000220F331F441FAA1FA9F335D00E2E3AF074
:1006D000E0E832D091505040E695001CCAF72BD08C
:1006E000FE2F29D0660F771F881FBB1F26173707DD
:1006F0004807AB07B0E809F0BB0B802DBF01FF270F
:1007000093585F4F3AF09E3F510578F00C941904CE
:100710000C9464045F3FE4F3983ED4F38695779598
:100720006795B795F7959F5FC9F7880F911D9695C7
:10073000879597F90895E1E0660F771F881FBB1F23
:10074000621773078407BA0720F0621B730B840BD0
:10075000BA0BEE1F88F7E09508950E94490488F0CF
:100760009F5798F0B92F9927B751B0F0E1F0660F75
:10077000771F881F991F1AF0BA95C9F714C0B130B6
:1007800091F00E946304B1E008950C946304672F14
:10079000782F8827B85F39F0B93FCCF386957795E5
:1007A0006795B395D9F73EF49095809570956195CE
:1007B0007F4F8F4F9F4F0895E89409C097FB3EF4F9
:1007C00090958095709561957F4F8F4F9F4F99239E
:1007D000A9F0F92F96E9BB279395F695879577951C
:1007E0006795B795F111F8CFFAF4BB0F11F460FFDC
:1007F0001BC06F5F7F4F8F4F9F4F16C0882311F034
:1008000096E911C0772321F09EE8872F762F05C047
:10081000662371F096E8862F70E060E02AF09A95E2
:10082000660F771F881FDAF7880F9695879597F9D7
:10083000089597F99F6780E870E060E008959FEF62
:1008400080EC089500240A94161617061806090667
:10085000089500240A941216130614060506089536
:10086000092E0394000C11F4882352F0BB0F40F4BE
:10087000BF2B11F460FF04C06F5F7F4F8F4F9F4FFE
:10088000089557FD9058440F551F59F05F3F71F080
:100890004795880F97FB991F61F09F3F79F08795E7
:1008A0000895121613061406551FF2CF4695F1DF70
:1008B00008C0161617061806991FF1CF8695710500
:1008C000610508940895E894BB2766277727CB0134
:1008D00097F908950E947D040C9430040E9422042C
:1008E00038F00E94290420F0952311F00C9419048B
:1008F0000C941F0411240C9464040E94410470F3AE
:10090000959FC1F3950F50E0551F629FF001729FB4
:10091000BB27F00DB11D639FAA27F00DB11DAA1FC3
:10092000649F6627B00DA11D661F829F2227B00D10
:10093000A11D621F739FB00DA11D621F839FA00D9B
:10094000611D221F749F3327A00D611D231F849FEB
:10095000600D211D822F762F6A2F11249F57504042
:100960009AF0F1F088234AF0EE0FFF1FBB1F661FBD
:10097000771F881F91505040A9F79E3F510580F086
:100980000C9419040C9464045F3FE4F3983ED4F390
:10099000869577956795B795F795E7959F5FC1F72A
:1009A000FE2B880F911D9695879597F90895A29F24
:1009B000B001B39FC001A39F700D811D1124911D33
:1009C000B29F700D811D1124911D0895BB274A30DF
:1009D00031F4992322F4BDE2909581959F4F0C94B8
:1009E000F204BB27FB015527AA27880F991FAA1FCE
:1009F000A41710F0A41B83955051B9F7A05DAA333A
:100A000008F0A95DA193009779F7B111B193119204
:100A1000CB010C940B05DC01FC01672F719177234E
:100A2000E1F7329704C07C916D9370836291AE17A9
:0A0A3000BF07C8F30895F894FFCF44
:100A3A004F4646004F4E0046616E206973202020C3
:0C0A4A00200054656D70203D202043000A
:00000001FF
